{
  "_format": "hh-sol-artifact-1",
  "contractName": "CrypticVault",
  "sourceName": "contracts/CrypticVault.sol",
  "abi": [
    {
      "anonymous": false,
      "inputs": [
        {
          "indexed": true,
          "internalType": "address",
          "name": "previousOwner",
          "type": "address"
        },
        {
          "indexed": true,
          "internalType": "address",
          "name": "newOwner",
          "type": "address"
        }
      ],
      "name": "OwnershipTransferred",
      "type": "event"
    },
    {
      "anonymous": false,
      "inputs": [
        {
          "indexed": false,
          "internalType": "address",
          "name": "",
          "type": "address"
        },
        {
          "indexed": false,
          "internalType": "address",
          "name": "",
          "type": "address"
        }
      ],
      "name": "TokenCreated",
      "type": "event"
    },
    {
      "anonymous": false,
      "inputs": [
        {
          "indexed": false,
          "internalType": "address",
          "name": "",
          "type": "address"
        },
        {
          "indexed": false,
          "internalType": "address",
          "name": "",
          "type": "address"
        },
        {
          "indexed": false,
          "internalType": "address",
          "name": "",
          "type": "address"
        },
        {
          "indexed": false,
          "internalType": "uint256",
          "name": "",
          "type": "uint256"
        }
      ],
      "name": "TokenTransfered",
      "type": "event"
    },
    {
      "inputs": [
        {
          "internalType": "address",
          "name": "tokenAddress",
          "type": "address"
        },
        {
          "internalType": "uint256",
          "name": "start",
          "type": "uint256"
        },
        {
          "internalType": "uint256",
          "name": "end",
          "type": "uint256"
        }
      ],
      "name": "bulkMintERC721",
      "outputs": [],
      "stateMutability": "nonpayable",
      "type": "function"
    },
    {
      "inputs": [
        {
          "internalType": "address",
          "name": "userAddress",
          "type": "address"
        },
        {
          "internalType": "string",
          "name": "subject",
          "type": "string"
        },
        {
          "internalType": "string",
          "name": "message",
          "type": "string"
        }
      ],
      "name": "createEmergencyAlert",
      "outputs": [],
      "stateMutability": "nonpayable",
      "type": "function"
    },
    {
      "inputs": [
        {
          "internalType": "address",
          "name": "userAddress",
          "type": "address"
        },
        {
          "internalType": "string",
          "name": "cid",
          "type": "string"
        }
      ],
      "name": "createMembers",
      "outputs": [],
      "stateMutability": "nonpayable",
      "type": "function"
    },
    {
      "inputs": [
        {
          "internalType": "address",
          "name": "userAddress",
          "type": "address"
        },
        {
          "internalType": "string",
          "name": "cid",
          "type": "string"
        }
      ],
      "name": "createNotes",
      "outputs": [],
      "stateMutability": "nonpayable",
      "type": "function"
    },
    {
      "inputs": [
        {
          "internalType": "string",
          "name": "name",
          "type": "string"
        },
        {
          "internalType": "string",
          "name": "symbol",
          "type": "string"
        }
      ],
      "name": "createToken",
      "outputs": [],
      "stateMutability": "nonpayable",
      "type": "function"
    },
    {
      "inputs": [
        {
          "internalType": "string",
          "name": "oldCid",
          "type": "string"
        },
        {
          "internalType": "string",
          "name": "newCid",
          "type": "string"
        },
        {
          "internalType": "address",
          "name": "userAddress",
          "type": "address"
        }
      ],
      "name": "findAndReplace",
      "outputs": [
        {
          "internalType": "bool",
          "name": "",
          "type": "bool"
        }
      ],
      "stateMutability": "nonpayable",
      "type": "function"
    },
    {
      "inputs": [
        {
          "internalType": "address",
          "name": "userAddress",
          "type": "address"
        }
      ],
      "name": "getDocuments",
      "outputs": [
        {
          "internalType": "string[]",
          "name": "",
          "type": "string[]"
        }
      ],
      "stateMutability": "view",
      "type": "function"
    },
    {
      "inputs": [
        {
          "internalType": "address",
          "name": "userAddress",
          "type": "address"
        }
      ],
      "name": "getEmergencyAlert",
      "outputs": [
        {
          "components": [
            {
              "internalType": "address",
              "name": "user",
              "type": "address"
            },
            {
              "internalType": "string",
              "name": "subject",
              "type": "string"
            },
            {
              "internalType": "string",
              "name": "message",
              "type": "string"
            }
          ],
          "internalType": "struct CrypticVault.emergencyAlert",
          "name": "",
          "type": "tuple"
        }
      ],
      "stateMutability": "view",
      "type": "function"
    },
    {
      "inputs": [
        {
          "internalType": "address",
          "name": "caller",
          "type": "address"
        }
      ],
      "name": "getLoginStatus",
      "outputs": [
        {
          "internalType": "bool",
          "name": "",
          "type": "bool"
        }
      ],
      "stateMutability": "view",
      "type": "function"
    },
    {
      "inputs": [
        {
          "internalType": "address",
          "name": "userAddress",
          "type": "address"
        }
      ],
      "name": "getMembers",
      "outputs": [
        {
          "internalType": "string[]",
          "name": "",
          "type": "string[]"
        }
      ],
      "stateMutability": "view",
      "type": "function"
    },
    {
      "inputs": [
        {
          "internalType": "address",
          "name": "userAddress",
          "type": "address"
        }
      ],
      "name": "getNotes",
      "outputs": [
        {
          "internalType": "string[]",
          "name": "",
          "type": "string[]"
        }
      ],
      "stateMutability": "view",
      "type": "function"
    },
    {
      "inputs": [
        {
          "internalType": "address",
          "name": "userAddress",
          "type": "address"
        }
      ],
      "name": "getTokenAddress",
      "outputs": [
        {
          "internalType": "address",
          "name": "",
          "type": "address"
        }
      ],
      "stateMutability": "view",
      "type": "function"
    },
    {
      "inputs": [
        {
          "internalType": "address",
          "name": "userAddress",
          "type": "address"
        }
      ],
      "name": "getTokenId",
      "outputs": [
        {
          "internalType": "uint256",
          "name": "",
          "type": "uint256"
        }
      ],
      "stateMutability": "view",
      "type": "function"
    },
    {
      "inputs": [
        {
          "internalType": "address",
          "name": "adminAddress",
          "type": "address"
        },
        {
          "internalType": "address",
          "name": "memberAddress",
          "type": "address"
        }
      ],
      "name": "getTransferStatus",
      "outputs": [
        {
          "internalType": "bool",
          "name": "",
          "type": "bool"
        }
      ],
      "stateMutability": "view",
      "type": "function"
    },
    {
      "inputs": [],
      "name": "owner",
      "outputs": [
        {
          "internalType": "address",
          "name": "",
          "type": "address"
        }
      ],
      "stateMutability": "view",
      "type": "function"
    },
    {
      "inputs": [],
      "name": "renounceOwnership",
      "outputs": [],
      "stateMutability": "nonpayable",
      "type": "function"
    },
    {
      "inputs": [
        {
          "internalType": "address",
          "name": "userAddress",
          "type": "address"
        },
        {
          "internalType": "uint256",
          "name": "tokenId",
          "type": "uint256"
        }
      ],
      "name": "setTokenId",
      "outputs": [],
      "stateMutability": "nonpayable",
      "type": "function"
    },
    {
      "inputs": [
        {
          "internalType": "address",
          "name": "userAddress",
          "type": "address"
        },
        {
          "internalType": "string",
          "name": "cid",
          "type": "string"
        }
      ],
      "name": "storeDocuments",
      "outputs": [],
      "stateMutability": "nonpayable",
      "type": "function"
    },
    {
      "inputs": [
        {
          "internalType": "address",
          "name": "newOwner",
          "type": "address"
        }
      ],
      "name": "transferOwnership",
      "outputs": [],
      "stateMutability": "nonpayable",
      "type": "function"
    },
    {
      "inputs": [
        {
          "internalType": "address",
          "name": "from",
          "type": "address"
        },
        {
          "internalType": "address payable",
          "name": "to",
          "type": "address"
        },
        {
          "internalType": "address",
          "name": "token",
          "type": "address"
        },
        {
          "internalType": "uint256",
          "name": "amount",
          "type": "uint256"
        }
      ],
      "name": "transferToken",
      "outputs": [],
      "stateMutability": "nonpayable",
      "type": "function"
    }
  ],
  "bytecode": "0x608060405234801561001057600080fd5b5061002d61002261003260201b60201c565b61003a60201b60201c565b6100fe565b600033905090565b60008060009054906101000a900473ffffffffffffffffffffffffffffffffffffffff169050816000806101000a81548173ffffffffffffffffffffffffffffffffffffffff021916908373ffffffffffffffffffffffffffffffffffffffff1602179055508173ffffffffffffffffffffffffffffffffffffffff168173ffffffffffffffffffffffffffffffffffffffff167f8be0079c531659141344cd1fd0a4f28419497f9722a3daafe3b4186f6b6457e060405160405180910390a35050565b615248806200010e6000396000f3fe60806040523480156200001157600080fd5b5060043610620001485760003560e01c80638da5cb5b11620000bd578063ddc8be3b116200007b578063ddc8be3b146200039f578063e95fd15514620003d5578063ed0704b0146200040b578063f1537686146200042b578063f2fde38b14620004615762000148565b80638da5cb5b14620002e7578063a894b1e41462000309578063b33df4481462000329578063b8d7b6691462000349578063c7c82d1c146200037f5762000148565b80633e953859116200010b5780633e953859146200022f578063523070e2146200024f5780636a663fbc146200026f578063715018a614620002a55780637854462914620002b15762000148565b806310a50690146200014d57806327f50a2d14620001835780632c54de4f14620001b95780632f2f2d5614620001d95780633b1a017414620001f9575b600080fd5b6200016b60048036038101906200016591906200179b565b62000481565b6040516200017a919062001e46565b60405180910390f35b620001a160048036038101906200019b91906200179b565b620005a3565b604051620001b0919062001e46565b60405180910390f35b620001d76004803603810190620001d1919062001808565b620006c5565b005b620001f76004803603810190620001f19190620019ed565b62000814565b005b620002176004803603810190620002119190620017c7565b62000893565b60405162000226919062001e6a565b60405180910390f35b6200024d600480360381019062000247919062001874565b62000927565b005b6200026d600480360381019062000267919062001997565b620009a6565b005b6200028d600480360381019062000287919062001a60565b62000b2f565b6040516200029c919062001e6a565b60405180910390f35b620002af62000dbb565b005b620002cf6004803603810190620002c991906200179b565b62000dd3565b604051620002de919062001e46565b60405180910390f35b620002f162000ef5565b60405162000300919062001d62565b60405180910390f35b620003276004803603810190620003219190620018ce565b62000f1e565b005b62000347600480360381019062000341919062001874565b62000fe0565b005b6200036760048036038101906200036191906200179b565b6200105f565b60405162000376919062001d62565b60405180910390f35b6200039d600480360381019062000397919062001956565b620010c8565b005b620003bd6004803603810190620003b791906200179b565b62001110565b604051620003cc919062001f06565b60405180910390f35b620003f36004803603810190620003ed91906200179b565b620012f5565b60405162000402919062001e6a565b60405180910390f35b62000429600480360381019062000423919062001874565b6200134b565b005b6200044960048036038101906200044391906200179b565b620013ca565b60405162000458919062001f2a565b60405180910390f35b6200047f60048036038101906200047991906200179b565b62001413565b005b6060600860008373ffffffffffffffffffffffffffffffffffffffff1673ffffffffffffffffffffffffffffffffffffffff168152602001908152602001600020805480602002602001604051908101604052809291908181526020016000905b8282101562000598578382906000526020600020018054620005049062002131565b80601f0160208091040260200160405190810160405280929190818152602001828054620005329062002131565b8015620005835780601f10620005575761010080835404028352916020019162000583565b820191906000526020600020905b8154815290600101906020018083116200056557829003601f168201915b505050505081526020019060010190620004e2565b505050509050919050565b6060600760008373ffffffffffffffffffffffffffffffffffffffff1673ffffffffffffffffffffffffffffffffffffffff168152602001908152602001600020805480602002602001604051908101604052809291908181526020016000905b82821015620006ba578382906000526020600020018054620006269062002131565b80601f0160208091040260200160405190810160405280929190818152602001828054620006549062002131565b8015620006a55780601f106200067957610100808354040283529160200191620006a5565b820191906000526020600020905b8154815290600101906020018083116200068757829003601f168201915b50505050508152602001906001019062000604565b505050509050919050565b8173ffffffffffffffffffffffffffffffffffffffff166368155ec1858585856040518563ffffffff1660e01b815260040162000706949392919062001dac565b600060405180830381600087803b1580156200072157600080fd5b505af115801562000736573d6000803e3d6000fd5b505050506001600260008673ffffffffffffffffffffffffffffffffffffffff1673ffffffffffffffffffffffffffffffffffffffff16815260200190815260200160002060008573ffffffffffffffffffffffffffffffffffffffff1673ffffffffffffffffffffffffffffffffffffffff16815260200190815260200160002060006101000a81548160ff0219169083151502179055507fa7814aaf178d6c8e61b2703f3dc1b8328dd6c99cbb405bf8f1bb0cb1bbb051a58484848460405162000806949392919062001df9565b60405180910390a150505050565b600082826040516200082690620015ef565b6200083392919062001e87565b604051809103906000f08015801562000850573d6000803e3d6000fd5b5090507fd5f9bdf12adf29dab0248c349842c3822d53ae2bb4f36352f301630d018c813933826040516200088692919062001d7f565b60405180910390a1505050565b6000600260008473ffffffffffffffffffffffffffffffffffffffff1673ffffffffffffffffffffffffffffffffffffffff16815260200190815260200160002060008373ffffffffffffffffffffffffffffffffffffffff1673ffffffffffffffffffffffffffffffffffffffff16815260200190815260200160002060009054906101000a900460ff16905092915050565b600760008373ffffffffffffffffffffffffffffffffffffffff1673ffffffffffffffffffffffffffffffffffffffff16815260200190815260200160002081908060018154018082558091505060019003906000526020600020016000909190919091509080519060200190620009a1929190620015fd565b505050565b60008290505b8181101562000a3a578373ffffffffffffffffffffffffffffffffffffffff166340d097c3336040518263ffffffff1660e01b8152600401620009f0919062001d62565b600060405180830381600087803b15801562000a0b57600080fd5b505af115801562000a20573d6000803e3d6000fd5b50505050808062000a31906200219d565b915050620009ac565b5060018060003373ffffffffffffffffffffffffffffffffffffffff1673ffffffffffffffffffffffffffffffffffffffff16815260200190815260200160002060006101000a81548160ff02191690831515021790555082600360003373ffffffffffffffffffffffffffffffffffffffff1673ffffffffffffffffffffffffffffffffffffffff16815260200190815260200160002060006101000a81548173ffffffffffffffffffffffffffffffffffffffff021916908373ffffffffffffffffffffffffffffffffffffffff16021790555062000b2a3360018362000b24919062002017565b620010c8565b505050565b600080600090505b600860008473ffffffffffffffffffffffffffffffffffffffff1673ffffffffffffffffffffffffffffffffffffffff1681526020019081526020016000208054905081101562000dae576000600860008573ffffffffffffffffffffffffffffffffffffffff1673ffffffffffffffffffffffffffffffffffffffff168152602001908152602001600020828154811062000bfc577f4e487b7100000000000000000000000000000000000000000000000000000000600052603260045260246000fd5b90600052602060002001805462000c139062002131565b80601f016020809104026020016040519081016040528092919081815260200182805462000c419062002131565b801562000c925780601f1062000c665761010080835404028352916020019162000c92565b820191906000526020600020905b81548152906001019060200180831162000c7457829003601f168201915b505050505090508560405160200162000cac919062001d49565b604051602081830303815290604052805190602001208160405160200162000cd5919062001d49565b60405160208183030381529060405280519060200120141562000d975784600860008673ffffffffffffffffffffffffffffffffffffffff1673ffffffffffffffffffffffffffffffffffffffff168152602001908152602001600020838154811062000d6b577f4e487b7100000000000000000000000000000000000000000000000000000000600052603260045260246000fd5b90600052602060002001908051906020019062000d8a929190620015fd565b5060019250505062000db4565b50808062000da5906200219d565b91505062000b37565b50600090505b9392505050565b62000dc56200149e565b62000dd1600062001523565b565b6060600460008373ffffffffffffffffffffffffffffffffffffffff1673ffffffffffffffffffffffffffffffffffffffff168152602001908152602001600020805480602002602001604051908101604052809291908181526020016000905b8282101562000eea57838290600052602060002001805462000e569062002131565b80601f016020809104026020016040519081016040528092919081815260200182805462000e849062002131565b801562000ed55780601f1062000ea95761010080835404028352916020019162000ed5565b820191906000526020600020905b81548152906001019060200180831162000eb757829003601f168201915b50505050508152602001906001019062000e34565b505050509050919050565b60008060009054906101000a900473ffffffffffffffffffffffffffffffffffffffff16905090565b6000600660008573ffffffffffffffffffffffffffffffffffffffff1673ffffffffffffffffffffffffffffffffffffffff1681526020019081526020016000209050838160000160006101000a81548173ffffffffffffffffffffffffffffffffffffffff021916908373ffffffffffffffffffffffffffffffffffffffff1602179055508281600101908051906020019062000fbe929190620015fd565b508181600201908051906020019062000fd9929190620015fd565b5050505050565b600460008373ffffffffffffffffffffffffffffffffffffffff1673ffffffffffffffffffffffffffffffffffffffff168152602001908152602001600020819080600181540180825580915050600190039060005260206000200160009091909190915090805190602001906200105a929190620015fd565b505050565b6000600360008373ffffffffffffffffffffffffffffffffffffffff1673ffffffffffffffffffffffffffffffffffffffff16815260200190815260200160002060009054906101000a900473ffffffffffffffffffffffffffffffffffffffff169050919050565b80600560008473ffffffffffffffffffffffffffffffffffffffff1673ffffffffffffffffffffffffffffffffffffffff168152602001908152602001600020819055505050565b6200111a6200168e565b600660008373ffffffffffffffffffffffffffffffffffffffff1673ffffffffffffffffffffffffffffffffffffffff1681526020019081526020016000206040518060600160405290816000820160009054906101000a900473ffffffffffffffffffffffffffffffffffffffff1673ffffffffffffffffffffffffffffffffffffffff1673ffffffffffffffffffffffffffffffffffffffff168152602001600182018054620011cc9062002131565b80601f0160208091040260200160405190810160405280929190818152602001828054620011fa9062002131565b80156200124b5780601f106200121f576101008083540402835291602001916200124b565b820191906000526020600020905b8154815290600101906020018083116200122d57829003601f168201915b50505050508152602001600282018054620012669062002131565b80601f0160208091040260200160405190810160405280929190818152602001828054620012949062002131565b8015620012e55780601f10620012b957610100808354040283529160200191620012e5565b820191906000526020600020905b815481529060010190602001808311620012c757829003601f168201915b5050505050815250509050919050565b6000600160008373ffffffffffffffffffffffffffffffffffffffff1673ffffffffffffffffffffffffffffffffffffffff16815260200190815260200160002060009054906101000a900460ff169050919050565b600860008373ffffffffffffffffffffffffffffffffffffffff1673ffffffffffffffffffffffffffffffffffffffff16815260200190815260200160002081908060018154018082558091505060019003906000526020600020016000909190919091509080519060200190620013c5929190620015fd565b505050565b6000600560008373ffffffffffffffffffffffffffffffffffffffff1673ffffffffffffffffffffffffffffffffffffffff168152602001908152602001600020549050919050565b6200141d6200149e565b600073ffffffffffffffffffffffffffffffffffffffff168173ffffffffffffffffffffffffffffffffffffffff16141562001490576040517f08c379a0000000000000000000000000000000000000000000000000000000008152600401620014879062001ec2565b60405180910390fd5b6200149b8162001523565b50565b620014a8620015e7565b73ffffffffffffffffffffffffffffffffffffffff16620014c862000ef5565b73ffffffffffffffffffffffffffffffffffffffff161462001521576040517f08c379a0000000000000000000000000000000000000000000000000000000008152600401620015189062001ee4565b60405180910390fd5b565b60008060009054906101000a900473ffffffffffffffffffffffffffffffffffffffff169050816000806101000a81548173ffffffffffffffffffffffffffffffffffffffff021916908373ffffffffffffffffffffffffffffffffffffffff1602179055508173ffffffffffffffffffffffffffffffffffffffff168173ffffffffffffffffffffffffffffffffffffffff167f8be0079c531659141344cd1fd0a4f28419497f9722a3daafe3b4186f6b6457e060405160405180910390a35050565b600033905090565b612ec3806200235083390190565b8280546200160b9062002131565b90600052602060002090601f0160209004810192826200162f57600085556200167b565b82601f106200164a57805160ff19168380011785556200167b565b828001600101855582156200167b579182015b828111156200167a5782518255916020019190600101906200165d565b5b5090506200168a9190620016c5565b5090565b6040518060600160405280600073ffffffffffffffffffffffffffffffffffffffff16815260200160608152602001606081525090565b5b80821115620016e0576000816000905550600101620016c6565b5090565b6000620016fb620016f58462001f70565b62001f47565b9050828152602081018484840111156200171457600080fd5b62001721848285620020ec565b509392505050565b6000813590506200173a8162002301565b92915050565b60008135905062001751816200231b565b92915050565b600082601f8301126200176957600080fd5b81356200177b848260208601620016e4565b91505092915050565b600081359050620017958162002335565b92915050565b600060208284031215620017ae57600080fd5b6000620017be8482850162001729565b91505092915050565b60008060408385031215620017db57600080fd5b6000620017eb8582860162001729565b9250506020620017fe8582860162001729565b9150509250929050565b600080600080608085870312156200181f57600080fd5b60006200182f8782880162001729565b9450506020620018428782880162001740565b9350506040620018558782880162001729565b9250506060620018688782880162001784565b91505092959194509250565b600080604083850312156200188857600080fd5b6000620018988582860162001729565b925050602083013567ffffffffffffffff811115620018b657600080fd5b620018c48582860162001757565b9150509250929050565b600080600060608486031215620018e457600080fd5b6000620018f48682870162001729565b935050602084013567ffffffffffffffff8111156200191257600080fd5b620019208682870162001757565b925050604084013567ffffffffffffffff8111156200193e57600080fd5b6200194c8682870162001757565b9150509250925092565b600080604083850312156200196a57600080fd5b60006200197a8582860162001729565b92505060206200198d8582860162001784565b9150509250929050565b600080600060608486031215620019ad57600080fd5b6000620019bd8682870162001729565b9350506020620019d08682870162001784565b9250506040620019e38682870162001784565b9150509250925092565b6000806040838503121562001a0157600080fd5b600083013567ffffffffffffffff81111562001a1c57600080fd5b62001a2a8582860162001757565b925050602083013567ffffffffffffffff81111562001a4857600080fd5b62001a568582860162001757565b9150509250929050565b60008060006060848603121562001a7657600080fd5b600084013567ffffffffffffffff81111562001a9157600080fd5b62001a9f8682870162001757565b935050602084013567ffffffffffffffff81111562001abd57600080fd5b62001acb8682870162001757565b925050604062001ade8682870162001729565b9150509250925092565b600062001af6838362001bd4565b905092915050565b62001b0981620020b0565b82525050565b62001b1a8162002066565b82525050565b62001b2b8162002052565b82525050565b62001b3c8162002052565b82525050565b600062001b4f8262001fb6565b62001b5b818562001fd9565b93508360208202850162001b6f8562001fa6565b8060005b8581101562001bb1578484038952815162001b8f858262001ae8565b945062001b9c8362001fcc565b925060208a0199505060018101905062001b73565b50829750879550505050505092915050565b62001bce816200207a565b82525050565b600062001be18262001fc1565b62001bed818562001fea565b935062001bff818560208601620020fb565b62001c0a8162002278565b840191505092915050565b600062001c228262001fc1565b62001c2e818562001ffb565b935062001c40818560208601620020fb565b62001c4b8162002278565b840191505092915050565b600062001c638262001fc1565b62001c6f81856200200c565b935062001c81818560208601620020fb565b80840191505092915050565b600062001c9c60268362001ffb565b915062001ca98262002289565b604082019050919050565b600062001cc360208362001ffb565b915062001cd082620022d8565b602082019050919050565b600060608301600083015162001cf5600086018262001b20565b506020830151848203602086015262001d0f828262001bd4565b9150506040830151848203604086015262001d2b828262001bd4565b9150508091505092915050565b62001d4381620020a6565b82525050565b600062001d57828462001c56565b915081905092915050565b600060208201905062001d79600083018462001b31565b92915050565b600060408201905062001d96600083018562001b31565b62001da5602083018462001b31565b9392505050565b600060808201905062001dc3600083018762001b31565b62001dd2602083018662001b0f565b62001de1604083018562001b31565b62001df0606083018462001d38565b95945050505050565b600060808201905062001e10600083018762001b31565b62001e1f602083018662001afe565b62001e2e604083018562001b31565b62001e3d606083018462001d38565b95945050505050565b6000602082019050818103600083015262001e62818462001b42565b905092915050565b600060208201905062001e81600083018462001bc3565b92915050565b6000604082019050818103600083015262001ea3818562001c15565b9050818103602083015262001eb9818462001c15565b90509392505050565b6000602082019050818103600083015262001edd8162001c8d565b9050919050565b6000602082019050818103600083015262001eff8162001cb4565b9050919050565b6000602082019050818103600083015262001f22818462001cdb565b905092915050565b600060208201905062001f41600083018462001d38565b92915050565b600062001f5362001f66565b905062001f61828262002167565b919050565b6000604051905090565b600067ffffffffffffffff82111562001f8e5762001f8d62002249565b5b62001f998262002278565b9050602081019050919050565b6000819050602082019050919050565b600081519050919050565b600081519050919050565b6000602082019050919050565b600082825260208201905092915050565b600082825260208201905092915050565b600082825260208201905092915050565b600081905092915050565b60006200202482620020a6565b91506200203183620020a6565b925082821015620020475762002046620021eb565b5b828203905092915050565b60006200205f8262002086565b9050919050565b6000620020738262002086565b9050919050565b60008115159050919050565b600073ffffffffffffffffffffffffffffffffffffffff82169050919050565b6000819050919050565b6000620020bd82620020c4565b9050919050565b6000620020d182620020d8565b9050919050565b6000620020e58262002086565b9050919050565b82818337600083830152505050565b60005b838110156200211b578082015181840152602081019050620020fe565b838111156200212b576000848401525b50505050565b600060028204905060018216806200214a57607f821691505b602082108114156200216157620021606200221a565b5b50919050565b620021728262002278565b810181811067ffffffffffffffff8211171562002194576200219362002249565b5b80604052505050565b6000620021aa82620020a6565b91507fffffffffffffffffffffffffffffffffffffffffffffffffffffffffffffffff821415620021e057620021df620021eb565b5b600182019050919050565b7f4e487b7100000000000000000000000000000000000000000000000000000000600052601160045260246000fd5b7f4e487b7100000000000000000000000000000000000000000000000000000000600052602260045260246000fd5b7f4e487b7100000000000000000000000000000000000000000000000000000000600052604160045260246000fd5b6000601f19601f8301169050919050565b7f4f776e61626c653a206e6577206f776e657220697320746865207a65726f206160008201527f6464726573730000000000000000000000000000000000000000000000000000602082015250565b7f4f776e61626c653a2063616c6c6572206973206e6f7420746865206f776e6572600082015250565b6200230c8162002052565b81146200231857600080fd5b50565b620023268162002066565b81146200233257600080fd5b50565b6200234081620020a6565b81146200234c57600080fd5b5056fe60806040523480156200001157600080fd5b5060405162002ec338038062002ec3833981810160405281019062000037919062000197565b818181600090805190602001906200005192919062000075565b5080600190805190602001906200006a92919062000075565b50505050506200037a565b82805462000083906200029f565b90600052602060002090601f016020900481019282620000a75760008555620000f3565b82601f10620000c257805160ff1916838001178555620000f3565b82800160010185558215620000f3579182015b82811115620000f2578251825591602001919060010190620000d5565b5b50905062000102919062000106565b5090565b5b808211156200012157600081600090555060010162000107565b5090565b60006200013c620001368462000233565b6200020a565b9050828152602081018484840111156200015557600080fd5b6200016284828562000269565b509392505050565b600082601f8301126200017c57600080fd5b81516200018e84826020860162000125565b91505092915050565b60008060408385031215620001ab57600080fd5b600083015167ffffffffffffffff811115620001c657600080fd5b620001d4858286016200016a565b925050602083015167ffffffffffffffff811115620001f257600080fd5b62000200858286016200016a565b9150509250929050565b60006200021662000229565b9050620002248282620002d5565b919050565b6000604051905090565b600067ffffffffffffffff8211156200025157620002506200033a565b5b6200025c8262000369565b9050602081019050919050565b60005b83811015620002895780820151818401526020810190506200026c565b8381111562000299576000848401525b50505050565b60006002820490506001821680620002b857607f821691505b60208210811415620002cf57620002ce6200030b565b5b50919050565b620002e08262000369565b810181811067ffffffffffffffff821117156200030257620003016200033a565b5b80604052505050565b7f4e487b7100000000000000000000000000000000000000000000000000000000600052602260045260246000fd5b7f4e487b7100000000000000000000000000000000000000000000000000000000600052604160045260246000fd5b6000601f19601f8301169050919050565b612b39806200038a6000396000f3fe608060405234801561001057600080fd5b50600436106100f55760003560e01c80636352211e11610097578063a22cb46511610066578063a22cb46514610282578063b88d4fde1461029e578063c87b56dd146102ba578063e985e9c5146102ea576100f5565b80636352211e146101e857806368155ec11461021857806370a082311461023457806395d89b4114610264576100f5565b8063095ea7b3116100d3578063095ea7b31461017857806323b872dd1461019457806340d097c3146101b057806342842e0e146101cc576100f5565b806301ffc9a7146100fa57806306fdde031461012a578063081812fc14610148575b600080fd5b610114600480360381019061010f9190611cde565b61031a565b6040516101219190612107565b60405180910390f35b6101326103fc565b60405161013f9190612122565b60405180910390f35b610162600480360381019061015d9190611d30565b61048e565b60405161016f9190612069565b60405180910390f35b610192600480360381019061018d9190611ca2565b610513565b005b6101ae60048036038101906101a99190611b9c565b61062b565b005b6101ca60048036038101906101c59190611ad4565b610684565b005b6101e660048036038101906101e19190611b9c565b6106aa565b005b61020260048036038101906101fd9190611d30565b6106ca565b60405161020f9190612069565b60405180910390f35b610232600480360381019061022d9190611b39565b61077c565b005b61024e60048036038101906102499190611ad4565b61089f565b60405161025b9190612324565b60405180910390f35b61026c610957565b6040516102799190612122565b60405180910390f35b61029c60048036038101906102979190611c66565b6109e9565b005b6102b860048036038101906102b39190611beb565b6109ff565b005b6102d460048036038101906102cf9190611d30565b610a61565b6040516102e19190612122565b60405180910390f35b61030460048036038101906102ff9190611afd565b610b08565b6040516103119190612107565b60405180910390f35b60007f80ac58cd000000000000000000000000000000000000000000000000000000007bffffffffffffffffffffffffffffffffffffffffffffffffffffffff1916827bffffffffffffffffffffffffffffffffffffffffffffffffffffffff191614806103e557507f5b5e139f000000000000000000000000000000000000000000000000000000007bffffffffffffffffffffffffffffffffffffffffffffffffffffffff1916827bffffffffffffffffffffffffffffffffffffffffffffffffffffffff1916145b806103f557506103f482610b9c565b5b9050919050565b60606000805461040b90612560565b80601f016020809104026020016040519081016040528092919081815260200182805461043790612560565b80156104845780601f1061045957610100808354040283529160200191610484565b820191906000526020600020905b81548152906001019060200180831161046757829003601f168201915b5050505050905090565b600061049982610c06565b6104d8576040517f08c379a00000000000000000000000000000000000000000000000000000000081526004016104cf906122a4565b60405180910390fd5b6004600083815260200190815260200160002060009054906101000a900473ffffffffffffffffffffffffffffffffffffffff169050919050565b600061051e826106ca565b90508073ffffffffffffffffffffffffffffffffffffffff168373ffffffffffffffffffffffffffffffffffffffff16141561058f576040517f08c379a0000000000000000000000000000000000000000000000000000000008152600401610586906122e4565b60405180910390fd5b8073ffffffffffffffffffffffffffffffffffffffff166105ae610c72565b73ffffffffffffffffffffffffffffffffffffffff1614806105dd57506105dc816105d7610c72565b610b08565b5b61061c576040517f08c379a000000000000000000000000000000000000000000000000000000000815260040161061390612204565b60405180910390fd5b6106268383610c7a565b505050565b6106358382610d33565b610674576040517f08c379a000000000000000000000000000000000000000000000000000000000815260040161066b90612304565b60405180910390fd5b61067f838383610e11565b505050565b60006106906006611078565b905061069c6006611086565b6106a6828261109c565b5050565b6106c5838383604051806020016040528060008152506109ff565b505050565b6000806002600084815260200190815260200160002060009054906101000a900473ffffffffffffffffffffffffffffffffffffffff169050600073ffffffffffffffffffffffffffffffffffffffff168173ffffffffffffffffffffffffffffffffffffffff161415610773576040517f08c379a000000000000000000000000000000000000000000000000000000000815260040161076a90612244565b60405180910390fd5b80915050919050565b600073ffffffffffffffffffffffffffffffffffffffff168273ffffffffffffffffffffffffffffffffffffffff1614610824578173ffffffffffffffffffffffffffffffffffffffff166323b872dd8585846040518463ffffffff1660e01b81526004016107ed93929190612084565b600060405180830381600087803b15801561080757600080fd5b505af115801561081b573d6000803e3d6000fd5b50505050610899565b8273ffffffffffffffffffffffffffffffffffffffff166108fc829081150290604051600060405180830381858888f19350505050610898576040517f08c379a000000000000000000000000000000000000000000000000000000000815260040161088f90612264565b60405180910390fd5b5b50505050565b60008073ffffffffffffffffffffffffffffffffffffffff168273ffffffffffffffffffffffffffffffffffffffff161415610910576040517f08c379a000000000000000000000000000000000000000000000000000000000815260040161090790612224565b60405180910390fd5b600360008373ffffffffffffffffffffffffffffffffffffffff1673ffffffffffffffffffffffffffffffffffffffff168152602001908152602001600020549050919050565b60606001805461096690612560565b80601f016020809104026020016040519081016040528092919081815260200182805461099290612560565b80156109df5780601f106109b4576101008083540402835291602001916109df565b820191906000526020600020905b8154815290600101906020018083116109c257829003601f168201915b5050505050905090565b6109fb6109f4610c72565b83836110ba565b5050565b610a10610a0a610c72565b83610d33565b610a4f576040517f08c379a0000000000000000000000000000000000000000000000000000000008152600401610a4690612304565b60405180910390fd5b610a5b84848484611227565b50505050565b6060610a6c82610c06565b610aab576040517f08c379a0000000000000000000000000000000000000000000000000000000008152600401610aa2906122c4565b60405180910390fd5b6000610ab5611283565b90506000815111610ad55760405180602001604052806000815250610b00565b80610adf8461129a565b604051602001610af0929190612045565b6040516020818303038152906040525b915050919050565b6000600560008473ffffffffffffffffffffffffffffffffffffffff1673ffffffffffffffffffffffffffffffffffffffff16815260200190815260200160002060008373ffffffffffffffffffffffffffffffffffffffff1673ffffffffffffffffffffffffffffffffffffffff16815260200190815260200160002060009054906101000a900460ff16905092915050565b60007f01ffc9a7000000000000000000000000000000000000000000000000000000007bffffffffffffffffffffffffffffffffffffffffffffffffffffffff1916827bffffffffffffffffffffffffffffffffffffffffffffffffffffffff1916149050919050565b60008073ffffffffffffffffffffffffffffffffffffffff166002600084815260200190815260200160002060009054906101000a900473ffffffffffffffffffffffffffffffffffffffff1673ffffffffffffffffffffffffffffffffffffffff1614159050919050565b600033905090565b816004600083815260200190815260200160002060006101000a81548173ffffffffffffffffffffffffffffffffffffffff021916908373ffffffffffffffffffffffffffffffffffffffff160217905550808273ffffffffffffffffffffffffffffffffffffffff16610ced836106ca565b73ffffffffffffffffffffffffffffffffffffffff167f8c5be1e5ebec7d5bd14f71427d1e84f3dd0314c0f7b2291e5b200ac8c7c3b92560405160405180910390a45050565b6000610d3e82610c06565b610d7d576040517f08c379a0000000000000000000000000000000000000000000000000000000008152600401610d74906121e4565b60405180910390fd5b6000610d88836106ca565b90508073ffffffffffffffffffffffffffffffffffffffff168473ffffffffffffffffffffffffffffffffffffffff161480610df757508373ffffffffffffffffffffffffffffffffffffffff16610ddf8461048e565b73ffffffffffffffffffffffffffffffffffffffff16145b80610e085750610e078185610b08565b5b91505092915050565b8273ffffffffffffffffffffffffffffffffffffffff16610e31826106ca565b73ffffffffffffffffffffffffffffffffffffffff1614610e87576040517f08c379a0000000000000000000000000000000000000000000000000000000008152600401610e7e90612164565b60405180910390fd5b600073ffffffffffffffffffffffffffffffffffffffff168273ffffffffffffffffffffffffffffffffffffffff161415610ef7576040517f08c379a0000000000000000000000000000000000000000000000000000000008152600401610eee906121a4565b60405180910390fd5b610f028383836113be565b610f0d600082610c7a565b6001600360008573ffffffffffffffffffffffffffffffffffffffff1673ffffffffffffffffffffffffffffffffffffffff1681526020019081526020016000206000828254610f5d919061242e565b925050819055506001600360008473ffffffffffffffffffffffffffffffffffffffff1673ffffffffffffffffffffffffffffffffffffffff1681526020019081526020016000206000828254610fb491906123d8565b92505081905550816002600083815260200190815260200160002060006101000a81548173ffffffffffffffffffffffffffffffffffffffff021916908373ffffffffffffffffffffffffffffffffffffffff160217905550808273ffffffffffffffffffffffffffffffffffffffff168473ffffffffffffffffffffffffffffffffffffffff167fddf252ad1be2c89b69c2b068fc378daa952ba7f163c4a11628f55a4df523b3ef60405160405180910390a46110738383836113c3565b505050565b600081600001549050919050565b6001816000016000828254019250508190555050565b6110b68282604051806020016040528060008152506113c8565b5050565b8173ffffffffffffffffffffffffffffffffffffffff168373ffffffffffffffffffffffffffffffffffffffff161415611129576040517f08c379a0000000000000000000000000000000000000000000000000000000008152600401611120906121c4565b60405180910390fd5b80600560008573ffffffffffffffffffffffffffffffffffffffff1673ffffffffffffffffffffffffffffffffffffffff16815260200190815260200160002060008473ffffffffffffffffffffffffffffffffffffffff1673ffffffffffffffffffffffffffffffffffffffff16815260200190815260200160002060006101000a81548160ff0219169083151502179055508173ffffffffffffffffffffffffffffffffffffffff168373ffffffffffffffffffffffffffffffffffffffff167f17307eab39ab6107e8899845ad3d59bd9653f200f220920489ca2b5937696c318360405161121a9190612107565b60405180910390a3505050565b611232848484610e11565b61123e84848484611423565b61127d576040517f08c379a000000000000000000000000000000000000000000000000000000000815260040161127490612144565b60405180910390fd5b50505050565b606060405180602001604052806000815250905090565b6060600060016112a9846115ba565b01905060008167ffffffffffffffff8111156112ee577f4e487b7100000000000000000000000000000000000000000000000000000000600052604160045260246000fd5b6040519080825280601f01601f1916602001820160405280156113205781602001600182028036833780820191505090505b509050600082602001820190505b6001156113b3578080600190039150507f3031323334353637383961626364656600000000000000000000000000000000600a86061a8153600a858161139d577f4e487b7100000000000000000000000000000000000000000000000000000000600052601260045260246000fd5b04945060008514156113ae576113b3565b61132e565b819350505050919050565b505050565b505050565b6113d283836117f1565b6113df6000848484611423565b61141e576040517f08c379a000000000000000000000000000000000000000000000000000000000815260040161141590612144565b60405180910390fd5b505050565b60006114448473ffffffffffffffffffffffffffffffffffffffff166119cb565b156115ad578373ffffffffffffffffffffffffffffffffffffffff1663150b7a0261146d610c72565b8786866040518563ffffffff1660e01b815260040161148f94939291906120bb565b602060405180830381600087803b1580156114a957600080fd5b505af19250505080156114da57506040513d601f19601f820116820180604052508101906114d79190611d07565b60015b61155d573d806000811461150a576040519150601f19603f3d011682016040523d82523d6000602084013e61150f565b606091505b50600081511415611555576040517f08c379a000000000000000000000000000000000000000000000000000000000815260040161154c90612144565b60405180910390fd5b805181602001fd5b63150b7a0260e01b7bffffffffffffffffffffffffffffffffffffffffffffffffffffffff1916817bffffffffffffffffffffffffffffffffffffffffffffffffffffffff1916149150506115b2565b600190505b949350505050565b600080600090507a184f03e93ff9f4daa797ed6e38ed64bf6a1f010000000000000000831061163e577a184f03e93ff9f4daa797ed6e38ed64bf6a1f0100000000000000008381611634577f4e487b7100000000000000000000000000000000000000000000000000000000600052601260045260246000fd5b0492506040810190505b6d04ee2d6d415b85acef810000000083106116a1576d04ee2d6d415b85acef81000000008381611697577f4e487b7100000000000000000000000000000000000000000000000000000000600052601260045260246000fd5b0492506020810190505b662386f26fc1000083106116f657662386f26fc1000083816116ec577f4e487b7100000000000000000000000000000000000000000000000000000000600052601260045260246000fd5b0492506010810190505b6305f5e1008310611745576305f5e100838161173b577f4e487b7100000000000000000000000000000000000000000000000000000000600052601260045260246000fd5b0492506008810190505b6127108310611790576127108381611786577f4e487b7100000000000000000000000000000000000000000000000000000000600052601260045260246000fd5b0492506004810190505b606483106117d957606483816117cf577f4e487b7100000000000000000000000000000000000000000000000000000000600052601260045260246000fd5b0492506002810190505b600a83106117e8576001810190505b80915050919050565b600073ffffffffffffffffffffffffffffffffffffffff168273ffffffffffffffffffffffffffffffffffffffff161415611861576040517f08c379a000000000000000000000000000000000000000000000000000000000815260040161185890612284565b60405180910390fd5b61186a81610c06565b156118aa576040517f08c379a00000000000000000000000000000000000000000000000000000000081526004016118a190612184565b60405180910390fd5b6118b6600083836113be565b6001600360008473ffffffffffffffffffffffffffffffffffffffff1673ffffffffffffffffffffffffffffffffffffffff168152602001908152602001600020600082825461190691906123d8565b92505081905550816002600083815260200190815260200160002060006101000a81548173ffffffffffffffffffffffffffffffffffffffff021916908373ffffffffffffffffffffffffffffffffffffffff160217905550808273ffffffffffffffffffffffffffffffffffffffff16600073ffffffffffffffffffffffffffffffffffffffff167fddf252ad1be2c89b69c2b068fc378daa952ba7f163c4a11628f55a4df523b3ef60405160405180910390a46119c7600083836113c3565b5050565b6000808273ffffffffffffffffffffffffffffffffffffffff163b119050919050565b6000611a016119fc84612364565b61233f565b905082815260208101848484011115611a1957600080fd5b611a2484828561251e565b509392505050565b600081359050611a3b81612a90565b92915050565b600081359050611a5081612aa7565b92915050565b600081359050611a6581612abe565b92915050565b600081359050611a7a81612ad5565b92915050565b600081519050611a8f81612ad5565b92915050565b600082601f830112611aa657600080fd5b8135611ab68482602086016119ee565b91505092915050565b600081359050611ace81612aec565b92915050565b600060208284031215611ae657600080fd5b6000611af484828501611a2c565b91505092915050565b60008060408385031215611b1057600080fd5b6000611b1e85828601611a2c565b9250506020611b2f85828601611a2c565b9150509250929050565b60008060008060808587031215611b4f57600080fd5b6000611b5d87828801611a2c565b9450506020611b6e87828801611a41565b9350506040611b7f87828801611a2c565b9250506060611b9087828801611abf565b91505092959194509250565b600080600060608486031215611bb157600080fd5b6000611bbf86828701611a2c565b9350506020611bd086828701611a2c565b9250506040611be186828701611abf565b9150509250925092565b60008060008060808587031215611c0157600080fd5b6000611c0f87828801611a2c565b9450506020611c2087828801611a2c565b9350506040611c3187828801611abf565b925050606085013567ffffffffffffffff811115611c4e57600080fd5b611c5a87828801611a95565b91505092959194509250565b60008060408385031215611c7957600080fd5b6000611c8785828601611a2c565b9250506020611c9885828601611a56565b9150509250929050565b60008060408385031215611cb557600080fd5b6000611cc385828601611a2c565b9250506020611cd485828601611abf565b9150509250929050565b600060208284031215611cf057600080fd5b6000611cfe84828501611a6b565b91505092915050565b600060208284031215611d1957600080fd5b6000611d2784828501611a80565b91505092915050565b600060208284031215611d4257600080fd5b6000611d5084828501611abf565b91505092915050565b611d62816124e8565b82525050565b611d7181612462565b82525050565b611d8081612486565b82525050565b6000611d9182612395565b611d9b81856123ab565b9350611dab81856020860161252d565b611db481612650565b840191505092915050565b6000611dca826123a0565b611dd481856123bc565b9350611de481856020860161252d565b611ded81612650565b840191505092915050565b6000611e03826123a0565b611e0d81856123cd565b9350611e1d81856020860161252d565b80840191505092915050565b6000611e366032836123bc565b9150611e4182612661565b604082019050919050565b6000611e596025836123bc565b9150611e64826126b0565b604082019050919050565b6000611e7c601c836123bc565b9150611e87826126ff565b602082019050919050565b6000611e9f6024836123bc565b9150611eaa82612728565b604082019050919050565b6000611ec26019836123bc565b9150611ecd82612777565b602082019050919050565b6000611ee5602c836123bc565b9150611ef0826127a0565b604082019050919050565b6000611f086038836123bc565b9150611f13826127ef565b604082019050919050565b6000611f2b602a836123bc565b9150611f368261283e565b604082019050919050565b6000611f4e6029836123bc565b9150611f598261288d565b604082019050919050565b6000611f716022836123bc565b9150611f7c826128dc565b604082019050919050565b6000611f946020836123bc565b9150611f9f8261292b565b602082019050919050565b6000611fb7602c836123bc565b9150611fc282612954565b604082019050919050565b6000611fda602f836123bc565b9150611fe5826129a3565b604082019050919050565b6000611ffd6021836123bc565b9150612008826129f2565b604082019050919050565b60006120206031836123bc565b915061202b82612a41565b604082019050919050565b61203f816124de565b82525050565b60006120518285611df8565b915061205d8284611df8565b91508190509392505050565b600060208201905061207e6000830184611d68565b92915050565b60006060820190506120996000830186611d68565b6120a66020830185611d59565b6120b36040830184612036565b949350505050565b60006080820190506120d06000830187611d68565b6120dd6020830186611d68565b6120ea6040830185612036565b81810360608301526120fc8184611d86565b905095945050505050565b600060208201905061211c6000830184611d77565b92915050565b6000602082019050818103600083015261213c8184611dbf565b905092915050565b6000602082019050818103600083015261215d81611e29565b9050919050565b6000602082019050818103600083015261217d81611e4c565b9050919050565b6000602082019050818103600083015261219d81611e6f565b9050919050565b600060208201905081810360008301526121bd81611e92565b9050919050565b600060208201905081810360008301526121dd81611eb5565b9050919050565b600060208201905081810360008301526121fd81611ed8565b9050919050565b6000602082019050818103600083015261221d81611efb565b9050919050565b6000602082019050818103600083015261223d81611f1e565b9050919050565b6000602082019050818103600083015261225d81611f41565b9050919050565b6000602082019050818103600083015261227d81611f64565b9050919050565b6000602082019050818103600083015261229d81611f87565b9050919050565b600060208201905081810360008301526122bd81611faa565b9050919050565b600060208201905081810360008301526122dd81611fcd565b9050919050565b600060208201905081810360008301526122fd81611ff0565b9050919050565b6000602082019050818103600083015261231d81612013565b9050919050565b60006020820190506123396000830184612036565b92915050565b600061234961235a565b90506123558282612592565b919050565b6000604051905090565b600067ffffffffffffffff82111561237f5761237e612621565b5b61238882612650565b9050602081019050919050565b600081519050919050565b600081519050919050565b600082825260208201905092915050565b600082825260208201905092915050565b600081905092915050565b60006123e3826124de565b91506123ee836124de565b9250827fffffffffffffffffffffffffffffffffffffffffffffffffffffffffffffffff03821115612423576124226125c3565b5b828201905092915050565b6000612439826124de565b9150612444836124de565b925082821015612457576124566125c3565b5b828203905092915050565b600061246d826124be565b9050919050565b600061247f826124be565b9050919050565b60008115159050919050565b60007fffffffff0000000000000000000000000000000000000000000000000000000082169050919050565b600073ffffffffffffffffffffffffffffffffffffffff82169050919050565b6000819050919050565b60006124f3826124fa565b9050919050565b60006125058261250c565b9050919050565b6000612517826124be565b9050919050565b82818337600083830152505050565b60005b8381101561254b578082015181840152602081019050612530565b8381111561255a576000848401525b50505050565b6000600282049050600182168061257857607f821691505b6020821081141561258c5761258b6125f2565b5b50919050565b61259b82612650565b810181811067ffffffffffffffff821117156125ba576125b9612621565b5b80604052505050565b7f4e487b7100000000000000000000000000000000000000000000000000000000600052601160045260246000fd5b7f4e487b7100000000000000000000000000000000000000000000000000000000600052602260045260246000fd5b7f4e487b7100000000000000000000000000000000000000000000000000000000600052604160045260246000fd5b6000601f19601f8301169050919050565b7f4552433732313a207472616e7366657220746f206e6f6e20455243373231526560008201527f63656976657220696d706c656d656e7465720000000000000000000000000000602082015250565b7f4552433732313a207472616e736665722066726f6d20696e636f72726563742060008201527f6f776e6572000000000000000000000000000000000000000000000000000000602082015250565b7f4552433732313a20746f6b656e20616c7265616479206d696e74656400000000600082015250565b7f4552433732313a207472616e7366657220746f20746865207a65726f2061646460008201527f7265737300000000000000000000000000000000000000000000000000000000602082015250565b7f4552433732313a20617070726f766520746f2063616c6c657200000000000000600082015250565b7f4552433732313a206f70657261746f7220717565727920666f72206e6f6e657860008201527f697374656e7420746f6b656e0000000000000000000000000000000000000000602082015250565b7f4552433732313a20617070726f76652063616c6c6572206973206e6f74206f7760008201527f6e6572206e6f7220617070726f76656420666f7220616c6c0000000000000000602082015250565b7f4552433732313a2062616c616e636520717565727920666f7220746865207a6560008201527f726f206164647265737300000000000000000000000000000000000000000000602082015250565b7f4552433732313a206f776e657220717565727920666f72206e6f6e657869737460008201527f656e7420746f6b656e0000000000000000000000000000000000000000000000602082015250565b7f5472616e73666572206f662045544820746f207265636569766572206661696c60008201527f6564000000000000000000000000000000000000000000000000000000000000602082015250565b7f4552433732313a206d696e7420746f20746865207a65726f2061646472657373600082015250565b7f4552433732313a20617070726f76656420717565727920666f72206e6f6e657860008201527f697374656e7420746f6b656e0000000000000000000000000000000000000000602082015250565b7f4552433732314d657461646174613a2055524920717565727920666f72206e6f60008201527f6e6578697374656e7420746f6b656e0000000000000000000000000000000000602082015250565b7f4552433732313a20617070726f76616c20746f2063757272656e74206f776e6560008201527f7200000000000000000000000000000000000000000000000000000000000000602082015250565b7f4552433732313a207472616e736665722063616c6c6572206973206e6f74206f60008201527f776e6572206e6f7220617070726f766564000000000000000000000000000000602082015250565b612a9981612462565b8114612aa457600080fd5b50565b612ab081612474565b8114612abb57600080fd5b50565b612ac781612486565b8114612ad257600080fd5b50565b612ade81612492565b8114612ae957600080fd5b50565b612af5816124de565b8114612b0057600080fd5b5056fea264697066735822122015bce63849592212f70cd7efda1dd88239c575192637041649b08062ebb9f12964736f6c63430008040033a264697066735822122051842bb52bd890941837cf19148f8d5dfeae706b1ebc9a6928b62e343f00b6c164736f6c63430008040033",
  "linkReferences": {},
  "deployedLinkReferences": {}
}